{
  "contractName": "BeaverWhisperer",
  "abi": [
    {
      "inputs": [
        {
          "internalType": "string",
          "name": "_beaverSays",
          "type": "string"
        }
      ],
      "stateMutability": "nonpayable",
      "type": "constructor"
    },
    {
      "inputs": [],
      "name": "beaverSays",
      "outputs": [
        {
          "internalType": "string",
          "name": "",
          "type": "string"
        }
      ],
      "stateMutability": "view",
      "type": "function",
      "constant": true
    },
    {
      "inputs": [],
      "name": "creator",
      "outputs": [
        {
          "internalType": "address payable",
          "name": "",
          "type": "address"
        }
      ],
      "stateMutability": "view",
      "type": "function",
      "constant": true
    },
    {
      "inputs": [],
      "name": "lastSaleAmount",
      "outputs": [
        {
          "internalType": "uint256",
          "name": "",
          "type": "uint256"
        }
      ],
      "stateMutability": "view",
      "type": "function",
      "constant": true
    },
    {
      "inputs": [],
      "name": "owner",
      "outputs": [
        {
          "internalType": "address",
          "name": "",
          "type": "address"
        }
      ],
      "stateMutability": "view",
      "type": "function",
      "constant": true
    },
    {
      "inputs": [],
      "name": "buy",
      "outputs": [],
      "stateMutability": "payable",
      "type": "function",
      "payable": true
    },
    {
      "inputs": [
        {
          "internalType": "string",
          "name": "text",
          "type": "string"
        }
      ],
      "name": "setBeaverSays",
      "outputs": [],
      "stateMutability": "nonpayable",
      "type": "function"
    },
    {
      "inputs": [],
      "name": "claim",
      "outputs": [],
      "stateMutability": "nonpayable",
      "type": "function"
    },
    {
      "inputs": [],
      "name": "finalize",
      "outputs": [],
      "stateMutability": "nonpayable",
      "type": "function"
    }
  ],
  "bytecode": "0x60806040523480156200001157600080fd5b5060405162000e9e38038062000e9e8339818101604052810190620000379190620001fb565b80600090805190602001906200004f929190620000d9565b5033600260006101000a81548173ffffffffffffffffffffffffffffffffffffffff021916908373ffffffffffffffffffffffffffffffffffffffff16021790555033600160006101000a81548173ffffffffffffffffffffffffffffffffffffffff021916908373ffffffffffffffffffffffffffffffffffffffff16021790555050620003b0565b828054620000e790620002d5565b90600052602060002090601f0160209004810192826200010b576000855562000157565b82601f106200012657805160ff191683800117855562000157565b8280016001018555821562000157579182015b828111156200015657825182559160200191906001019062000139565b5b5090506200016691906200016a565b5090565b5b80821115620001855760008160009055506001016200016b565b5090565b6000620001a06200019a8462000269565b62000240565b905082815260208101848484011115620001b957600080fd5b620001c68482856200029f565b509392505050565b600082601f830112620001e057600080fd5b8151620001f284826020860162000189565b91505092915050565b6000602082840312156200020e57600080fd5b600082015167ffffffffffffffff8111156200022957600080fd5b6200023784828501620001ce565b91505092915050565b60006200024c6200025f565b90506200025a82826200030b565b919050565b6000604051905090565b600067ffffffffffffffff82111562000287576200028662000370565b5b62000292826200039f565b9050602081019050919050565b60005b83811015620002bf578082015181840152602081019050620002a2565b83811115620002cf576000848401525b50505050565b60006002820490506001821680620002ee57607f821691505b6020821081141562000305576200030462000341565b5b50919050565b62000316826200039f565b810181811067ffffffffffffffff8211171562000338576200033762000370565b5b80604052505050565b7f4e487b7100000000000000000000000000000000000000000000000000000000600052602260045260246000fd5b7f4e487b7100000000000000000000000000000000000000000000000000000000600052604160045260246000fd5b6000601f19601f8301169050919050565b610ade80620003c06000396000f3fe60806040526004361061007b5760003560e01c8063604444d51161004e578063604444d5146101025780638da5cb5b1461012d5780638f79f0b314610158578063a6f2ae3a146101835761007b565b806302d05d3f146100805780634ac09484146100ab5780634bb278f3146100d45780634e71d92d146100eb575b600080fd5b34801561008c57600080fd5b5061009561018d565b6040516100a291906107a1565b60405180910390f35b3480156100b757600080fd5b506100d260048036038101906100cd9190610676565b6101b3565b005b3480156100e057600080fd5b506100e961025d565b005b3480156100f757600080fd5b50610100610328565b005b34801561010e57600080fd5b50610117610423565b604051610124919061083e565b60405180910390f35b34801561013957600080fd5b50610142610429565b60405161014f9190610786565b60405180910390f35b34801561016457600080fd5b5061016d61044f565b60405161017a91906107bc565b60405180910390f35b61018b6104dd565b005b600260009054906101000a900473ffffffffffffffffffffffffffffffffffffffff1681565b600160009054906101000a900473ffffffffffffffffffffffffffffffffffffffff1673ffffffffffffffffffffffffffffffffffffffff163373ffffffffffffffffffffffffffffffffffffffff1614610243576040517f08c379a000000000000000000000000000000000000000000000000000000000815260040161023a906107de565b60405180910390fd5b806000908051906020019061025992919061056b565b5050565b600260009054906101000a900473ffffffffffffffffffffffffffffffffffffffff1673ffffffffffffffffffffffffffffffffffffffff163373ffffffffffffffffffffffffffffffffffffffff16146102ed576040517f08c379a00000000000000000000000000000000000000000000000000000000081526004016102e4906107fe565b60405180910390fd5b600260009054906101000a900473ffffffffffffffffffffffffffffffffffffffff1673ffffffffffffffffffffffffffffffffffffffff16ff5b600260009054906101000a900473ffffffffffffffffffffffffffffffffffffffff1673ffffffffffffffffffffffffffffffffffffffff163373ffffffffffffffffffffffffffffffffffffffff16146103b8576040517f08c379a00000000000000000000000000000000000000000000000000000000081526004016103af906107fe565b60405180910390fd5b600260009054906101000a900473ffffffffffffffffffffffffffffffffffffffff1673ffffffffffffffffffffffffffffffffffffffff166108fc479081150290604051600060405180830381858888f19350505050158015610420573d6000803e3d6000fd5b50565b60035481565b600160009054906101000a900473ffffffffffffffffffffffffffffffffffffffff1681565b6000805461045c9061095b565b80601f01602080910402602001604051908101604052809291908181526020018280546104889061095b565b80156104d55780601f106104aa576101008083540402835291602001916104d5565b820191906000526020600020905b8154815290600101906020018083116104b857829003601f168201915b505050505081565b6003543411610521576040517f08c379a00000000000000000000000000000000000000000000000000000000081526004016105189061081e565b60405180910390fd5b33600160006101000a81548173ffffffffffffffffffffffffffffffffffffffff021916908373ffffffffffffffffffffffffffffffffffffffff16021790555034600381905550565b8280546105779061095b565b90600052602060002090601f01602090048101928261059957600085556105e0565b82601f106105b257805160ff19168380011785556105e0565b828001600101855582156105e0579182015b828111156105df5782518255916020019190600101906105c4565b5b5090506105ed91906105f1565b5090565b5b8082111561060a5760008160009055506001016105f2565b5090565b600061062161061c8461087e565b610859565b90508281526020810184848401111561063957600080fd5b610644848285610919565b509392505050565b600082601f83011261065d57600080fd5b813561066d84826020860161060e565b91505092915050565b60006020828403121561068857600080fd5b600082013567ffffffffffffffff8111156106a257600080fd5b6106ae8482850161064c565b91505092915050565b6106c0816108dd565b82525050565b6106cf816108cb565b82525050565b60006106e0826108af565b6106ea81856108ba565b93506106fa818560208601610928565b61070381610a1c565b840191505092915050565b600061071b6015836108ba565b915061072682610a2d565b602082019050919050565b600061073e6018836108ba565b915061074982610a56565b602082019050919050565b60006107616018836108ba565b915061076c82610a7f565b602082019050919050565b6107808161090f565b82525050565b600060208201905061079b60008301846106c6565b92915050565b60006020820190506107b660008301846106b7565b92915050565b600060208201905081810360008301526107d681846106d5565b905092915050565b600060208201905081810360008301526107f78161070e565b9050919050565b6000602082019050818103600083015261081781610731565b9050919050565b6000602082019050818103600083015261083781610754565b9050919050565b60006020820190506108536000830184610777565b92915050565b6000610863610874565b905061086f828261098d565b919050565b6000604051905090565b600067ffffffffffffffff821115610899576108986109ed565b5b6108a282610a1c565b9050602081019050919050565b600081519050919050565b600082825260208201905092915050565b60006108d6826108ef565b9050919050565b60006108e8826108ef565b9050919050565b600073ffffffffffffffffffffffffffffffffffffffff82169050919050565b6000819050919050565b82818337600083830152505050565b60005b8381101561094657808201518184015260208101905061092b565b83811115610955576000848401525b50505050565b6000600282049050600182168061097357607f821691505b60208210811415610987576109866109be565b5b50919050565b61099682610a1c565b810181811067ffffffffffffffff821117156109b5576109b46109ed565b5b80604052505050565b7f4e487b7100000000000000000000000000000000000000000000000000000000600052602260045260246000fd5b7f4e487b7100000000000000000000000000000000000000000000000000000000600052604160045260246000fd5b6000601f19601f8301169050919050565b7f596f7520617265204e4f54206d79206f776e6572210000000000000000000000600082015250565b7f596f7520617265206e6f74207468652063726561746f72210000000000000000600082015250565b7f596f75206172652063686561702120506179206d6f726521000000000000000060008201525056fea264697066735822122087c3441e984a776b030205f3c1ebe7e2ea009a253cd991623e181567d3b2ea3664736f6c63430008040033",
  "immutableReferences": {},
  "source": "// SPDX-License-Identifier: MIT\npragma solidity 0.8.4;\n\ncontract BeaverWhisperer {\n    string public beaverSays;\n    address public owner;\n    address payable public creator;\n    uint256 public lastSaleAmount;\n\n    constructor(string memory _beaverSays) {\n        beaverSays = _beaverSays;\n\n        creator = payable(msg.sender);\n        owner = msg.sender;\n    }\n\n    function buy() public payable {\n        require(msg.value > lastSaleAmount, \"You are cheap! Pay more!\");\n\n        owner = msg.sender;\n        lastSaleAmount = msg.value;\n    }\n\n    function setBeaverSays(string memory text) public {\n        require(msg.sender == owner, \"You are NOT my owner!\");\n\n        beaverSays = text;\n    }\n\n    function claim() public {\n        require(msg.sender == creator, \"You are not the creator!\");\n\n        creator.transfer(address(this).balance);\n    }\n\n    function finalize() public {\n        require(msg.sender == creator, \"You are not the creator!\");\n\n        selfdestruct(creator);\n    }\n}\n",
  "sourcePath": "/home/pavel/git/beavercodes/web/blockchain/contracts/BeaverWhisperer.sol",
  "compiler": {
    "name": "solc",
    "version": "0.8.4+commit.c7e474f2.Emscripten.clang"
  },
  "schemaVersion": "3.3.4",
  "updatedAt": "2021-05-10T07:01:19.560Z",
  "networkType": "ethereum",
  "devdoc": {
    "kind": "dev",
    "methods": {},
    "version": 1
  },
  "userdoc": {
    "kind": "user",
    "methods": {},
    "version": 1
  }
}